:020000040800F2
:1000000060040020D10E0008F10E0008F30E000875
:1000100000000000000000000000000000000000E0
:10002000000000000000000000000000F50E0008C5
:100030000000000000000000F70E0008F90E0008A4
:1000400057060008D3060008070E00087F0E0008B8
:100050008B0E0008110F0008130F0008150F000881
:10006000170F0008190F00081B0F00081D0F0008CC
:100070001F0F0008210F0008230F0008250F00089C
:10008000270F0008290F0008000000002B0F0008B0
:100090002D0F00082F0F0008310F0008330F000844
:1000A000350F0008370F0008390F00083B0F000814
:1000B0003D0F0008000000003F0F0008FEB50600DD
:1000C00019D0AD4C3078C00717D58027BF026068C3
:1000D0000C210140042909D060680C210140082945
:1000E00041D160687908084088423CD120680740C7
:1000F00003D07068002800D19BE1307880071AD5C2
:10010000F827FF4360680C21014007D060680C218C
:10011000014008295AD16068C00357D4206880077D
:1001200003D5F068012800D083E1206807403069DA
:10013000C000384320603078000778D50227F06986
:100140000028606A64D001210143616200F040FA36
:100150000500606A38406AD100F03AFA401B022874
:10016000F7D90320FEBD73687908012B09D0B34885
:10017000B34A002B09D0052B07D120688A0002431F
:10018000226020680143216005E021680A40226066
:10019000216808402060706800280BD000F018FA31
:1001A000050020683840A8D100F012FA401B6528ED
:1001B000F7D3D6E700F00CFA0500206838409CD051
:1001C00000F006FA401B6528F7D3CAE7F06800285C
:1001D00020680ED001210143216000F0F9F90500EB
:1001E00020688007A1D400F0F3F9401B0228F7D95A
:1001F000B7E701218843206000F0EAF90500206894
:10020000800798D500F0E4F9401B0228F7D9A8E749
:1002100001218843606200F0DBF90500606A384024
:1002200005D000F0D5F9401B0228F7D999E704273B
:100230003068384062D000200190B806E169014082
:1002400008D1E1690143E161E1690840009000984B
:10025000012001907B480068C00512D479480068ED
:10026000A10D01437748016000F0B2F9050075481F
:100270000068C00505D400F0ABF9401B6528F6D333
:100280006FE7B068012808D0002801D1206A09E092
:100290000528206A06D138432062206A01210143E3
:1002A000216205E0012188432062206AB843206270
:1002B000A4480090B06800280CD000F089F905002F
:1002C000206A800713D400F083F9401B009988420C
:1002D000F6D346E700F07CF90500206A800706D5D2
:1002E00000F076F9401B00998842F6D339E701986F
:1002F000002803D0E06994490140E1613078C006EC
:100300001DD57069F825ED43012837D1606B07438F
:100310006763606B01210143616300F059F90700D5
:10032000606B800705D400F053F9C01B0228F7D991
:1003300017E7606B0540B069C00028436063306A0E
:10034000002878D061680C220A40082A5CD08027F7
:10035000BF048D490228206848D10140216000F087
:1003600037F905002068384022D000F031F9401BF1
:100370000228F7D9F5E600BF001002400421C94366
:100380008842606B02D101406163D2E70743676333
:10039000606B01218843606300F01AF90500606B0F
:1003A0008007CCD500F014F9401B0228F7D9D8E615
:1003B000E06A0F218843F16A0143E1626068734992
:1003C0000140B06A0843716A01436160206879089E
:1003D0000143216000F0FCF80500206838402AD174
:1003E00000F0F6F8401B0228F7D9BAE60140216078
:1003F00000F0EEF80500206838401CD000F0E8F866
:10040000401B0228F7D9ACE6012812D06068E16AE7
:10041000802252020240736A9A420AD10907090FE8
:10042000F26A914205D1F02189030140B06A81420C
:1004300001D00120FEBD0020FEBD0000FFFFFBFF3C
:10044000FFFFFEFF00700040F8B5040060D000918F
:100450004F480068C107C90F009881420CD24C4830
:10046000016801229143009A0A4302600068C107B3
:10047000C90F009881424BD12168464D02200142AC
:100480000CD0490704D56968E022D2000A436A60AB
:100490006968F0229143A2680A436A6001272168D3
:1004A000394025D06168012902D12868800303E022
:1004B000022903D12868800103D429E02A6810406A
:1004C00026D06868032290430143696000F080F8F9
:1004D000060068680C21014060688000814207D0F6
:1004E00000F076F8801B17498842F2D30320F2BD52
:1004F0002748009902683A4091420BD20168B943FB
:10050000009A0A430260006807400098874201D0C1
:100510000120F2BD2078400705D568681E490140DA
:10052000E0680843686000F011F81C496A68120628
:10053000120F895CC8401A490860002000F04EF88C
:100540000020F2BD89130000FFFFFFEF154B196873
:1005500015480C220A40082A00D0704730B50F22F7
:1005600013A48D0C1540645D9B6AC90307D500BFB9
:1005700013A11A40895C00F053F8604330BD20009D
:100580000A49484330BD0000FFFFFFFEFFFFC2FFE6
:100590000020024000100240FFF8FFFFC00E0008DC
:1005A0000C0000200410024000127A0000093D00F7
:1005B00002030405060708090A0B0C0D0E0F1010A4
:1005C0000102030405060708090A0B0C0D0E0F10A3
:1005D00001484068704700BF0000002038B50500A2
:1005E0000D4CFA208000217800F01AF801000B4829
:1005F000006800F015F800F050F800280AD1042D2A
:1006000008D2002229000020C04300F042F8A56073
:10061000002032BD012032BD000000200C0000206F
:10062000094214D088420FD30122030C01D10004E7
:100630001204002300185B418B4200D35B1A524125
:10064000F8D319001000704701000020704708B56A
:1006500000F03EF808BDFEE710B5C20018231340B5
:10066000FF249C40E2438907090E9940030004D40B
:1006700014489B089B00C01806E0134B0007000FAE
:10068000083880088000181803681A401143016078
:1006900010BD80B5FFF7E0FF01BD10B5401E802101
:1006A0004904884201D3012010BD084C6060032139
:1006B0000020C043FFF7D0FF0020A0600721216089
:1006C00010BD000000E400E01CED00E010E000E0E0
:1006D0007047FEE7FFB500220F2302932CE00524AC
:1006E00002E0684DA842FAD16D462D78AC40344303
:1006F000019D2C60644C2668DC4326404D68ED0368
:1007000000D51E43604D2E606E6826404F68BF03C3
:1007100000D51E436E60AE6826404F68FF0200D5CC
:100720001E43AE60EE6834404E68B60202D5260025
:100730001C003443EC60521C0B681C00D44000D1F8
:1007400091E0012494402340F5D055000327AF40A9
:10075000FE4301964E68B707BF0F012F03D0B607BF
:10076000B60F022E0ED18768019E3E40CF68AF4083
:10077000374387604668A6434C68E706FF0F9740FB
:100780003743476094006E4674700C79A407A40F39
:10079000032C26D0C468019E26408C68AC403443AC
:1007A000C4600C79A407A40F022C1AD1D408A400A9
:1007B0000419266A03966E4677781C263E406F46DB
:1007C0003E70039EB446029F6E463678B74066463A
:1007D000BE43B4460F696E463678B7406646374327
:1007E000276207680324019E3E404F682740BC46AD
:1007F0002F006546BD40354305604D6826042E40F8
:1008000099D00125214E36682E43204F3E603E464A
:1008100036682E400196019E1D4E9708BF00F619BE
:100820000196019E366803966E4677780C263E4008
:100830006F463E70039EB446029F6E463678B740C0
:100840006646BE439027FF05B84201D100244BE71E
:10085000104FB84201D1012446E70F4DA84200D005
:100860003FE7022440E7FFBD002A01D081617047C5
:100870008162704742690B0013401B049143194386
:1008800081617047000C00480004014018100240CC
:10089000080001400004004800080048F8B586B090
:1008A00000F0B4F800F072F81422002101A800F062
:1008B000BDF880218902304802680A43026002685C
:1008C0001140009100998021090302680A430260E7
:1008D00002681140009100998021C90202680A4310
:1008E00002600068014000910098C025AD00234FD0
:1008F000002229003800FFF7B7FF0126019690205B
:10090000400302900024039401A98002FFF7E2FE55
:10091000019502960394049401A93800FFF7DAFECA
:10092000174D1848286018486860AC60EE602C616C
:100930006C61AC61EC612C62280000F081F8002849
:1009400001D000F061F80021280000F0D3F8002861
:1009500001D000F059F80021280000F0E8F8002844
:1009600001D000F051F831023800FFF783FFFA2080
:10097000400000F005F9F6E71410024000080048B6
:1009800010000020005400400E09002030B595B042
:100990003022002109A800F049F810220021684601
:1009A00000F044F81422002104A800F03FF80224CB
:1009B000099401200C9010200D901194002512959F
:1009C000A02080031390149509A8FFF777FB002857
:1009D00001D000F019F807200090019402950395CA
:1009E00001216846FFF730FD002801D072B6FEE70E
:1009F00020200490079504A800F0D6F8002801D024
:100A000072B6FEE715B030BD72B6FEE780B5064897
:100A1000016810220A4302600020FFF7DFFD00F0AA
:100A200049F9002002BD00000020024010B504007A
:100A3000080011000200200000F088F9200010BD1D
:100A400070B5040001D1012070BD2500403500269D
:100A50006878002803D12E70200000F040F924208F
:100A600068702068016801229143016060681E4936
:100A700001402068016121681C488A6802408A6040
:100A8000E1680129A16801D1C24301E08422120278
:100A90000A4321688A60E168022903D180210901A3
:100AA0002268516021684A68114B13434B602168EA
:100AB000CA681040C860206961690143A0690002EA
:100AC00008432168C860E069216A01432068016029
:100AD0002068016801220A4302606E60202068706D
:100AE0002663AE70002070BDFFFFFFF0FF7FFFFFA9
:100AF0000080000270B5020040325378202B14D1E0
:100B00004023C35C012B10D00123137024245470A4
:100B1000046825689D43256004682568164E2E40AC
:100B200026600468256829431CE0022070BD70B56A
:100B3000020040325378202B12D14023C35C012B9A
:100B40000ED00123137024245470046825689D433B
:100B5000256004682568094E2E400902314301E0F2
:100B6000022070BD2160006801680B4303602020F3
:100B700050700020107070BDFFEFFFFFFFF0FFFF0F
:100B800038B50500FFF724FD04000020C04385426E
:100B900002D0044800782D18FFF71AFD001BA84268
:100BA000FAD331BD00000020F8B504003B4D2068A9
:100BB000C00356D5002000908020400529680140E0
:100BC00008D12968014329602968084000900098ED
:100BD00001200090324F3868C00510D43868A90D44
:100BE00001433960FFF7F4FC06003868C00506D4FD
:100BF000FFF7EEFC801B6528F7D30320F2BDC02071
:100C0000800069680140274F00291ED062681040AB
:100C100081421AD0686838406968802252020A43CB
:100C20006A606968204A0A406A606860C0070CD53B
:100C3000FFF7CEFC06006868800706D4FFF7C8FC03
:100C4000801B1A498842F6D3D7E768680740606876
:100C5000384368600098002803D028681449014090
:100C600029602078C00705D5686903218843A168F9
:100C7000014369612078800605D5686910218843A1
:100C8000E168014369612068400505D56869402134
:100C900088432169014369610020F2BD1C100240B4
:100CA00000700040FFFCFFFFFFFFFEFF8913000004
:100CB000FFFFFFEF81B0012020490A6802430A606C
:100CC0000A68104000900098802040054A6802435E
:100CD0004A60496808400090009801B0704710B51C
:100CE00086B004001422002101A8FFF79FFE2068AF
:100CF0001349884220D18020C002124C2168014350
:100D000021602168084000900098C02001901220C6
:100D1000029000200390032004900120059001A977
:100D20000948FFF7D7FC80208003A1680143A16038
:100D3000A16808400090009806B010BD181002404D
:100D40000054004014100240000400481206130A28
:100D50001A43130C1A4300BF094205D0830705D07C
:100D60000270401C491EF9D1704700001300103971
:100D700006D330B41400150010393CC0FCD230BC8E
:100D8000490700D30CC000D504C0890002D30280FB
:100D9000801C002900D50270704770B40123002424
:100DA00013E00168001D194202D04D466918491E22
:100DB0000C60091D121F042AFAD20D00960701D5F6
:100DC0000C80AD1C1A4000D02C700268001D002A57
:100DD000E7D170BC704730B401220EE00368C3183D
:100DE00044680830144202D04D462C19641E1D6818
:100DF00025601B1D241D091FF9D10168001D002954
:100E0000ECD130BC7047FEE710B507497944183182
:100E1000064C7C44163404E0081D0A68891888478B
:100E20000100A142F8D110BD080000002800000018
:100E30006BFFFFFF4C0000001000002000000000CE
:100E400097FFFFFF10000000B80000000000002026
:100E50000000000000F00DF8002801D0FFF7D4FFDB
:100E600000BF00BF002000BF00BFFFF717FD00F06C
:100E700002F80120704780B500F002F801BDFEE7DE
:100E80000746384600F002F8FBE7FEE780B500BFF2
:100E900000BF024A11001820ABBEFBE7260002008B
:100EA0000548014603B4684680F3098800BF00BFC7
:100EB00000BF00BFFFF7CEFFA5EDF5FE70470000B5
:100EC00000000000000000000102030406070809FA
:100ED0000148804701480047BD0E0008A10E0008E8
:100EE000024841680278891841607047000000207C
:100EF000FEE7FEE77047704780B5FFF7F1FF01BDE1
:100F000001000000000000000400000000127A0050
:100F1000FEE7FEE7FEE7FEE7FEE7FEE7FEE7FEE7A9
:100F2000FEE7FEE7FEE7FEE7FEE7FEE7FEE7FEE799
:100F3000FEE7FEE7FEE7FEE7FEE7FEE7FEE7FEE789
:0400000508000EA140
:00000001FF
