:020000040800F2
:1000000000200020C50600088D06000893060008A1
:1000100000000000000000000000000000000000E0
:100020000000000000000000000000009906000829
:100030000000000000000000A3060008AD06000854
:100040001507000815070008150700081507000820
:100050001507000815070008150700081507000810
:100060001507000815070008150700081507000800
:1000700015070008150700081507000815070008F0
:100080001507000815070008000000001507000804
:1000900015070008150700081507000815070008D0
:1000A00015070008150700081507000815070008C0
:1000B00015070008000000001507000800000000F8
:1000C00010B5064C2378002B07D1054B002B02D02E
:1000D000044800E000BF0123237010BD0C00002085
:1000E00000000000F8210008044B10B5002B03D0DD
:1000F0000349044800E000BF10BDC04600000000F6
:1001000010000020F8210008002243088B4274D31D
:1001100003098B425FD3030A8B4244D3030B8B4208
:1001200028D3030C8B420DD3FF22090212BA030C11
:100130008B4202D31212090265D0030B8B4219D3F2
:1001400000E0090AC30B8B4201D3CB03C01A524112
:10015000830B8B4201D38B03C01A5241430B8B425A
:1001600001D34B03C01A5241030B8B4201D30B0343
:10017000C01A5241C30A8B4201D3CB02C01A52416A
:10018000830A8B4201D38B02C01A5241430A8B422D
:1001900001D34B02C01A5241030A8B4201D30B0216
:1001A000C01A5241CDD2C3098B4201D3CB01C01A30
:1001B000524183098B4201D38B01C01A524143093A
:1001C0008B4201D34B01C01A524103098B4201D328
:1001D0000B01C01A5241C3088B4201D3CB00C01A95
:1001E000524183088B4201D38B00C01A524143080D
:1001F0008B4201D34B00C01A5241411A00D2014632
:10020000524110467047FFE701B5002000F006F8A4
:1002100002BDC0460029F7D076E770477047C04658
:1002200080B500AF00F078FA00F038F800F0D0F8B0
:1002300000F08EF880235B00144A1900100000F0D3
:1002400034FD134A134B3E21180000F06FF9124A97
:10025000104802233E2100F033F90F4A0D482023B5
:10026000402100F02DF90C4A0A480123602100F0DA
:1002700027F9094A07480123612100F021F9FA23EF
:100280005B00180000F0ACFAD4E7C0460008004854
:10029000F5410000480000202800002090B597B0EC
:1002A00000AF28243B19180030231A00002101F068
:1002B0009BFF1823FB18180010231A00002101F0DF
:1002C00093FF3B1D180014231A00002101F08CFF3E
:1002D00021007B1803221A607B1801225A607B18C8
:1002E0000122DA607B1810221A617B1800221A6240
:1002F0007B18180001F02AFA031E01D000F04EF915
:1003000018217B1807221A607B1801225A607B187B
:1003100000229A607B180022DA607B180021180006
:1003200001F02EFD031E01D000F038F93B1D202204
:100330001A603B1D0022DA603B1D180001F052FEDE
:10034000031E01D000F02AF9C046BD4617B090BD8B
:1003500080B500AF1B4B1C4A1A601A4B1B4A5A60EF
:10036000184B00229A60174B0122DA60154B0022CD
:100370001A61144B00225A61124B00229A61114BF0
:100380000022DA610F4B00221A620E4B180000F0B7
:10039000A7FC031E01D000F001F90A4B0021180050
:1003A00001F03CF9031E01D000F0F8F8054B0021E4
:1003B000180001F07FF9031E01D000F0EFF8C046ED
:1003C000BD4680BD48000020005400400E090020BA
:1003D00090B58BB000AF14243B19180014231A00F9
:1003E000002101F001FF344B5A69334B8021C903CE
:1003F0000A435A61304B5A698023DB0313403B6147
:100400003B692D4B5A692C4B802189020A435A6162
:10041000294B5A6980239B021340FB60FB68264BE3
:100420005A69254B802109030A435A61224B5A69B4
:1004300080231B031340BB60BB681F4B5A691E4BD4
:100440008021C9020A435A611B4B5A698023DB028F
:1004500013407B607B68C0239B0018480022190072
:1004600000F006FC3B1901221A603B19902252034E
:100470005A603B1900229A603A199023DB0511005B
:10048000180000F085FA21007B18C02292001A6043
:100490007B1801225A607B1800229A607B18002288
:1004A000DA607B18054A1900100000F071FAC046A6
:1004B000BD460BB090BDC046001002400008004889
:1004C00090B589B002AFF86008007A6019000B247B
:1004D0003B19021C1A700823FB180A1C1A801721EA
:1004E0007B183A1912781A707A18F86801235B425F
:1004F00000930123AA2100F089FC031E01D000F023
:100500004DF80823FB1819887A68F86801235B42C4
:1005100000930B00AA2100F081FD031E01D000F022
:100520003DF8C046BD4607B090BD000080B586B01E
:1005300002AF786008001100FB1C021C1A703B001F
:100540000A1C1A800C203B18134A12881A800222B7
:100550000021995401007B18FA1C12781A703B0094
:100560001B88DAB27B185A703B001B881B0A9BB2AF
:10057000DAB27B189A707A18786801235B4200938C
:100580000323AA2100F042FC031E01D000F006F86C
:10059000C046BD4604B080BD1022000880B500AF43
:1005A00072B6C046FEE7000080B582B000AF0F4BC8
:1005B0009A690E4B01210A439A610C4B9B690122F7
:1005C00013407B607B68094BDA69084B8021490541
:1005D0000A43DA61054BDA6980235B0513403B600F
:1005E0003B68C046BD4602B080BDC0460010024018
:1005F00090B58BB000AF786014243B191800142319
:100600001A00002101F0F0FD7B681B681C4A934230
:1006100031D11C4B5A691B4B8021C9020A435A61D4
:10062000184B5A698023DB0213403B613B69210070
:100630007B18C0221A607B1812225A607B18002295
:100640009A607B180322DA607B1801221A617B18FA
:100650000D4A1900100000F09BF90A4BDA69094BAA
:10066000802189030A43DA61064BDA6980239B0300
:100670001340FB60FB68C046BD460BB090BDC04652
:1006800000540040001002400004004880B500AF54
:10069000FEE780B500AFFEE780B500AFC046BD46BF
:1006A00080BD80B500AFC046BD4680BD80B500AFFF
:1006B00000F07AF8C046BD4680BD80B500AFC046A8
:1006C000BD4680BD0D4885460D480E490E4A0023A3
:1006D00002E0D458C4500433C4188C42F9D30B4AF6
:1006E0000B4C002301E013600432A242FBD3FFF75E
:1006F000E4FF01F055FDFFF793FDFEE70020002029
:10070000000000200C0000204C2200080C000020FB
:1007100098000020FEE7000080B500AF074B1A6884
:10072000064B10210A431A60002000F009F8FFF779
:100730003BFF00231800BD4680BDC046002002409C
:1007400090B583B000AF7860144B1C68144B1B78D5
:100750001900FA239800FFF7D7FC030019002000C6
:10076000FFF7D2FC0300180000F005F9031E01D0CA
:1007700001230FE07B68032B0BD8796801235B42D0
:100780000022180000F0E2F8064B7A681A60002395
:1007900000E001231800BD4603B090BD000000201A
:1007A000080000200400002080B500AF054B1B7836
:1007B0001A00054B1B68D218034B1A60C046BD4691
:1007C00080BDC046080000209400002080B500AF26
:1007D000024B1B681800BD4680BDC0469400002037
:1007E00080B584B000AF7860FFF7F0FF0300BB6016
:1007F0007B68FB60FB68013305D00A4B1B781A004D
:10080000FB689B18FB60C046FFF7E0FF0200BB6877
:10081000D31AFA689A42F7D8C046C046BD4604B01B
:1008200080BDC0460800002090B583B000AF020034
:100830003960FB1D1A70FB1D1B787F2B28D82F4AAF
:10084000FB1D1B785BB29B08C0339B009B58FA1DB5
:100850001278110003220A40D200FF2191400A00C1
:10086000D2431A4011003B689B01FF221A40FB1D36
:100870001B78180003230340DB009A401F48FB1D30
:100880001B785BB29B080A43C0339B001A5031E0CF
:100890001B4AFB1D1B7819000F230B40083B9B08CC
:1008A00006339B00D31804331B68FA1D127811001D
:1008B00003220A40D200FF2191400A00D2431A408D
:1008C00011003B689B01FF221A40FB1D1B7818009A
:1008D00003230340DB009A400948FB1D1B781C00E2
:1008E0000F232340083B9B080A4306339B00C31891
:1008F00004331A60C046BD4603B090BD00E100E07D
:1009000000ED00E080B582B000AF78607B685A1ED1
:1009100080235B049A4201D3012310E00A4B7A68DA
:10092000013A5A6001235B4203211800FFF77CFF64
:10093000054B00229A60044B07221A60002318001E
:10094000BD4602B080BDC04610E000E080B584B076
:1009500000AFB9607A600F217B18021C1A70BA6868
:100960007B181B785BB211001800FFF75DFFC046D3
:10097000BD4604B080BD80B582B000AF78607B68B2
:100980001800FFF7BFFF03001800BD4602B080BD8E
:1009900080B586B000AF7860396000237B614FE19D
:1009A0003B681B6801217A6991400A001340FB6093
:1009B000FB68002B00D140E13B685B6803221340D9
:1009C000012B05D03B685B6803221340022B30D11A
:1009D0007B689B683B617B695B0003229A40130044
:1009E000DA433B6913403B613B68DA687B695B0033
:1009F0009A4013003A6913433B617B683A699A60F5
:100A00007B685B683B6101227B699A401300DA4393
:100A10003B6913403B613B685B681B0901221A403C
:100A20007B699A4013003A6913433B617B683A69DA
:100A30005A603B685B6803221340032B17D07B6826
:100A4000DB683B617B695B0003229A401300DA4359
:100A50003B6913403B613B689A687B695B009A4045
:100A600013003A6913433B617B683A69DA603B687B
:100A70005B6803221340022B23D17B69DA087B6871
:100A800008329200D3583B617B69072213409B00D8
:100A90000F229A401300DA433B6913403B613B68E5
:100AA0001A697B6907210B409B009A4013003A6941
:100AB00013433B617B69DA087B680832920039692D
:100AC000D1507B681B683B617B695B0003229A40C5
:100AD0001300DA433B6913403B613B685B680322C8
:100AE0001A407B695B009A4013003A6913433B61EB
:100AF0007B683A691A603B685A68C0239B021340BE
:100B000000D19AE0544B9A69534B01210A439A61F0
:100B1000514B9B6901221340BB60BB684F4A7B6904
:100B20009B0802339B009B583B617B690322134067
:100B30009B000F229A401300DA433B6913403B614C
:100B40007A689023DB059A4213D07B68444A93422B
:100B50000DD07B68434A934207D07B68424A934258
:100B600001D1032306E0052304E0022302E0012370
:100B700000E000237A6903210A40920093403A6919
:100B800013433B6135497B699B0802339B003A69FB
:100B90005A50364B1B683B61FB68DA433B69134094
:100BA0003B613B685A6880235B02134003D03A697B
:100BB000FB6813433B612D4B3A691A602B4B5B6812
:100BC0003B61FB68DA433B6913403B613B685A6811
:100BD00080239B02134003D03A69FB6813433B61B7
:100BE000224B3A695A60214B9B683B61FB68DA43B0
:100BF0003B6913403B613B685A6880235B031340A9
:100C000003D03A69FB6813433B61184B3A699A6019
:100C1000164BDB683B61FB68DA433B6913403B6181
:100C20003B685A6880239B03134003D03A69FB68F2
:100C300013433B610D4B3A69DA607B6901337B6199
:100C40003B681A687B69DA40131E00D0A8E6C046EC
:100C5000C046BD4606B080BD001002400000014005
:100C60000004004800080048000C0048000401404F
:100C700080B582B000AF786008001100BB1C021C78
:100C80001A807B1C0A1C1A707B1C1B78002B04D05A
:100C9000BB1C1A887B689A6103E0BB1C1A887B68BE
:100CA0009A62C046BD4602B080BD80B584B000AF38
:100CB00078600A00BB1C1A807B685B69FB60BB1C08
:100CC0001B88FA6813401A04FB68DB43B91C0988C7
:100CD0000B401A437B689A61C046BD4604B080BD94
:100CE00080B582B000AF78607B68002B01D1012312
:100CF00082E07B6841229B5CDBB2002B07D17B68E2
:100D00004022002199547B681800FFF771FC7B6832
:100D10004122242199547B681B681A687B681B68F0
:100D200001218A431A607B685A687B681B683449D2
:100D30000A401A617B681B689A687B681B683149A6
:100D40000A409A607B68DB68012B08D17B689A684F
:100D50007B681B68802109020A439A6007E07B6870
:100D60009A687B681B68842109020A439A607B6841
:100D7000DB68022B04D17B681B68802212015A6059
:100D80007B681B685A687B681B681F490A435A6066
:100D90007B681B68DA687B681B681A490A40DA605E
:100DA0007B681A697B685B691A4311007B689B69E1
:100DB0001A027B681B680A43DA607B68D9697B6822
:100DC0001A6A7B681B680A431A607B681B681A688A
:100DD0007B681B6801210A431A607B6800225A6401
:100DE0007B684122202199547B6800221A637B682A
:100DF00042220021995400231800BD4602B080BD54
:100E0000FFFFFFF0FF7FFFFF0080000290B589B079
:100E100002AFF86008007A6019000A23FB18021C70
:100E20001A800823FB180A1C1A80FB6841229B5C6D
:100E3000DBB2202B00D0E7E0FB6840229B5C012B5B
:100E400001D10223E1E0FB68402201219954FFF720
:100E5000BDFC03007B6180231902F8687B69009365
:100E60001923012200F004FA031E01D00123CCE073
:100E7000FB68412221219954FB6842221021995498
:100E8000FB6800225A64FB687A685A62FB68082291
:100E9000BA1812885A85FB6800225A63FB685B8D7A
:100EA0009BB2FF2B11D9FB68FF221A85FB681B8DB3
:100EB000DAB280235C040A23FB181988F868554BC2
:100EC0000093230000F074FB75E0FB685B8D9AB221
:100ED000FB681A85FB681B8DDAB280239C040A2309
:100EE000FB181988F8684B4B0093230000F060FB57
:100EF00061E07A69B96AFB68180000F0F8F9031E2E
:100F000001D0012381E0FB685B6A1A78FB681B68EB
:100F10009A62FB685B6A5A1CFB685A62FB685B8DCD
:100F20009BB2013B9AB2FB685A85FB681B8D013B63
:100F30009AB2FB681A85FB685B8D9BB2002B3AD096
:100F4000FB681B8D002B36D1BA6AF8687B69009369
:100F500013000022802100F08BF9031E01D0012331
:100F600053E0FB685B8D9BB2FF2B11D9FB68FF221E
:100F70001A85FB681B8DDAB280235C040A23FB18F8
:100F80001988F86800230093230000F011FB12E099
:100F9000FB685B8D9AB2FB681A85FB681B8DDAB221
:100FA00080239C040A23FB181988F8680023009307
:100FB000230000F0FDFAFB685B8D9BB2002B98D1FB
:100FC0007A69B96AFB68180000F0D0F9031E01D0F5
:100FD00001231AE0FB681B682022DA61FB681B68AA
:100FE0005A68FB681B680C490A405A60FB6841223A
:100FF00020219954FB68422200219954FB68402229
:1010000000219954002300E002231800BD4607B0D8
:1010100090BDC0460020008000E800FE90B589B079
:1010200002AFF86008007A6019000A23FB18021C5E
:101030001A800823FB180A1C1A80FB6841229B5C5B
:10104000DBB2202B00D0E8E0FB6840229B5C012B48
:1010500001D10223E2E0FB68402201219954FFF70D
:10106000B5FB03007B6180231902F8687B6900935C
:101070001923012200F0FCF8031E01D00123CDE06A
:10108000FB68412222219954FB6842221021995485
:10109000FB6800225A64FB687A685A62FB6808227F
:1010A000BA1812885A85FB6800225A63FB685B8D68
:1010B0009BB2FF2B11D9FB68FF221A85FB681B8DA1
:1010C000DAB280235C040A23FB181988F868554BB0
:1010D0000093230000F06CFA76E0FB685B8D9AB217
:1010E000FB681A85FB681B8DDAB280239C040A23F7
:1010F000FB181988F8684B4B0093230000F058FA4E
:1011000062E07A69B96AFB68180000F06BF9031EA7
:1011100001D0012382E0FB681B685A6AFB685B6AA6
:10112000D2B21A70FB685B6A5A1CFB685A62FB6891
:101130001B8D013B9AB2FB681A85FB685B8D9BB2E5
:10114000013B9AB2FB685A85FB685B8D9BB2002B12
:101150003AD0FB681B8D002B36D1BA6AF8687B69E0
:10116000009313000022802100F082F8031E01D0BA
:10117000012353E0FB685B8D9BB2FF2B11D9FB6809
:10118000FF221A85FB681B8DDAB280235C040A23D8
:10119000FB181988F86800230093230000F008FA70
:1011A00012E0FB685B8D9AB2FB681A85FB681B8DA9
:1011B000DAB280239C040A23FB181988F8680023FC
:1011C0000093230000F0F4F9FB685B8D9BB2002BC9
:1011D00097D17A69B96AFB68180000F0C7F8031E56
:1011E00001D001231AE0FB681B682022DA61FB684A
:1011F0001B685A68FB681B680B490A405A60FB6809
:10120000412220219954FB68422200219954FB6815
:10121000402200219954002300E002231800BD461B
:1012200007B090BD0024008000E800FE80B582B0C9
:1012300000AF78607B681B689B6902221340022B19
:1012400003D17B681B6800229A627B681B689B69DC
:1012500001221340012B07D07B681B689A697B68C9
:101260001B6801210A439A61C046BD4602B080BD99
:1012700080B584B000AFF860B9603B60FB1D1A70A8
:1012800021E03B6801331ED0FFF7A0FA0200BB69E2
:10129000D31A3A689A4202D33B68002B13D1FB68F9
:1012A0005B6C20221A43FB685A64FB6841222021B0
:1012B0009954FB68422200219954FB684022002186
:1012C000995401230FE0FB681B689B69BA681340BF
:1012D000BA68D31A5A425341DBB21A00FB1D1B787D
:1012E0009A42CED000231800BD4604B080BD80B520
:1012F00084B000AFF860B9607A602BE07A68B968B2
:10130000FB68180000F0DAF8031E01D0012329E081
:10131000BB6801331ED0FFF759FA02007B68D31A6D
:10132000BA689A4202D3BB68002B13D1FB685B6C8E
:1013300020221A43FB685A64FB68412220219954F9
:10134000FB68422200219954FB68402200219954F5
:10135000012307E0FB681B689B6902221340022BF4
:10136000CCD100231800BD4604B080BD80B584B048
:1013700000AFF860B9607A6028E07A68B968FB6805
:10138000180000F09BF8031E01D0012326E0FFF7B0
:101390001DFA02007B68D31ABA689A4202D3BB686E
:1013A000002B13D1FB685B6C20221A43FB685A6444
:1013B000FB68412220219954FB6842220021995464
:1013C000FB68402200219954012307E0FB681B6859
:1013D0009B6920221340202BCFD100231800BD464B
:1013E00004B080BD80B584B000AFF860B9607A60A9
:1013F00055E07A68B968FB68180000F05FF8031ED2
:1014000001D0012353E0FB681B689B692022134035
:10141000202B29D1FB681B689B6904221340042BF5
:1014200005D1FB681B8D002B01D000233FE0FB683A
:101430001B682022DA61FB681B685A68FB681B681E
:101440001D490A405A60FB6800225A64FB68412229
:1014500020219954FB68422200219954FB684022C4
:1014600000219954012322E0FFF7B0F902007B68C4
:10147000D31ABA689A4202D3BB68002B0FD1FB681B
:101480005B6C20221A43FB685A64FB6841222021CE
:101490009954FB68402200219954012307E0FB681E
:1014A0001B689B6904221340042BA2D1002318005F
:1014B000BD4604B080BDC04600E800FE80B584B0E3
:1014C00000AFF860B9607A60FB681B689B69102206
:1014D0001340102B64D1FB681B685A6880239B045F
:1014E0001A4080239B049A422BD0FB681B685A68E1
:1014F000FB681B688021C9010A435A6021E0BB6870
:1015000001331ED0FFF762F902007B68D31ABA6874
:101510009A4202D3BB68002B13D1FB685B6C20227C
:101520001A43FB685A64FB68412220219954FB68E6
:10153000422200219954FB68402200219954012342
:101540002FE0FB681B689B6920221340202BD6D11B
:10155000FB681B681022DA61FB681B682022DA61D5
:10156000FB681800FFF762FEFB681B685A68FB689F
:101570001B680E490A405A60FB685B6C04221A43E0
:10158000FB685A64FB68412220219954FB6842227F
:1015900000219954FB68402200219954012300E066
:1015A00000231800BD4604B080BDC04600E800FE20
:1015B00090B585B000AFF860080011007B600A2488
:1015C0003B19021C1A8009203B180A1C1A70FB6880
:1015D0001B685B683A6A510D8022D2000A400E49AE
:1015E0000A43D2431A4011003B191B889B059A0DF0
:1015F0003B181B781804FF231B0403401A437B6825
:101600001A433B6A1A43FB681B680A435A60C04688
:10161000BD4605B090BDC046FF63FF0380B582B0F4
:1016200000AF786039607B6841229B5CDBB2202B85
:1016300038D17B6840229B5C012B01D1022332E030
:101640007B684022012199547B68412224219954CE
:101650007B681B681A687B681B6801218A431A60D3
:101660007B681B681A687B681B6811490A401A600E
:101670007B681B6819687B681B683A680A431A60B4
:101680007B681B681A687B681B6801210A431A6023
:101690007B684122202199547B6840220021995483
:1016A000002300E002231800BD4602B080BDC04602
:1016B000FFEFFFFF80B584B000AF786039607B68D2
:1016C00041229B5CDBB2202B39D17B6840229B5CA2
:1016D000012B01D1022333E07B6840220121995480
:1016E0007B684122242199547B681B681A687B68B7
:1016F0001B6801218A431A607B681B681B68FB60BA
:10170000FB68114A1340FB603B681B02FA681343F5
:10171000FB607B681B68FA681A607B681B681A6844
:101720007B681B6801210A431A607B6841222021E3
:1017300099547B68402200219954002300E0022341
:101740001800BD4604B080BDFFF0FFFF80B588B033
:1017500000AF78607B68002B01D1012301E37B6837
:101760001B680122134000D18DE0C34B5B680C2243
:101770001340042B0ED0C04B5B680C221340082B87
:1017800016D1BD4B5A6880235B021A4080235B024E
:101790009A420DD1B84B1A6880239B02134000D1A6
:1017A00070E07B685B68002B00D06BE00123D8E21F
:1017B0007B685B68012B07D1AF4B1A68AE4B802169
:1017C00049020A431A602FE07B685B68002B0CD14A
:1017D000A94B1A68A84BA9490A401A60A64B1A6877
:1017E000A54BA7490A401A601EE07B685B68052B81
:1017F0000ED1A14B1A68A04B8021C9020A431A607E
:101800009D4B1A689C4B802149020A431A600BE0E9
:10181000994B1A68984B99490A401A60964B1A6876
:10182000954B97490A401A607B685B68002B14D07F
:10183000FEF7CCFF0300BB6108E0FEF7C7FF020024
:10184000BB69D31A642B01D903238AE28A4B1A6835
:1018500080239B021340F0D015E0FEF7B7FF030092
:10186000BB6108E0FEF7B2FF0200BB69D31A642B2C
:1018700001D9032375E2804B1A6880239B02134031
:10188000F0D100E0C0467B681B680222134000D103
:1018900069E0794B5B680C2213400BD0764B5B6898
:1018A0000C221340082B1CD1734B5A6880235B0217
:1018B000134016D1704B1B680222134005D07B6881
:1018C000DB68012B01D001234BE26B4B1B68F82234
:1018D000934319007B681B69DA00674B0A431A605F
:1018E00041E07B68DB68002B24D0634B1A68624BB5
:1018F00001210A431A60FEF769FF0300BB6108E09B
:10190000FEF764FF0200BB69D31A022B01D903233F
:1019100027E2594B1B6802221340F1D0564B1B683B
:10192000F822934319007B681B69DA00524B0A4383
:101930001A6018E0504B1A684F4B01218A431A6015
:10194000FEF744FF0300BB6108E0FEF73FFF020023
:10195000BB69D31A022B01D9032302E2464B1B6851
:1019600002221340F1D17B681B680822134036D055
:101970007B68DB69002B19D03F4B5A6A3E4B012133
:101980000A435A62FEF722FF0300BB6108E0FEF73C
:101990001DFF0200BB69D31A022B01D90323E0E12A
:1019A000354B5B6A02221340F1D018E0324B5A6A81
:1019B000314B01218A435A62FEF708FF0300BB61E5
:1019C00008E0FEF703FF0200BB69D31A022B01D91E
:1019D0000323C6E1284B5B6A02221340F1D17B68E6
:1019E0001B680422134000D1B4E01F203B180022E2
:1019F0001A70214BDA6980235B05134010D11E4B0E
:101A0000DA691D4B802149050A43DA611A4BDA690C
:101A100080235B051340FB60FB683B1801221A70B2
:101A2000184B1A6880235B0013401AD1154B1A68B3
:101A3000144B802149000A431A60FEF7C7FE0300D9
:101A4000BB6108E0FEF7C2FE0200BB69D31A642B3B
:101A500001D9032385E10B4B1A6880235B001340F7
:101A6000F0D07B689B68012B0ED1034B1A6A024BA6
:101A700001210A431A6235E000100240FFFFFEFF19
:101A8000FFFFFBFF007000407B689B68002B0CD1C0
:101A9000B64B1A6AB54B01218A431A62B34B1A6AD4
:101AA000B24B04218A431A621CE07B689B68052BB9
:101AB0000CD1AE4B1A6AAD4B04210A431A62AB4BF0
:101AC0001A6AAA4B01210A431A620BE0A74B1A6A51
:101AD000A64B01218A431A62A44B1A6AA34B042124
:101AE0008A431A627B689B68002B14D0FEF76EFE57
:101AF0000300BB6109E0FEF769FE0200BB69D31A6F
:101B00009B4A934201D903232BE1984B1B6A022283
:101B10001340F0D013E0FEF759FE0300BB6109E06B
:101B2000FEF754FE0200BB69D31A914A934201D9D1
:101B3000032316E18D4B1B6A02221340F0D11F23B1
:101B4000FB181B78012B05D1884BDA69874B894933
:101B50000A40DA617B681B681022134063D07B68FF
:101B60005B69012B2AD1814B5A6B804B04210A43BC
:101B70005A637E4B5A6B7D4B01210A435A63FEF731
:101B800025FE0300BB6108E0FEF720FE0200BB69F2
:101B9000D31A022B01D90323E3E0744B5B6B0222BF
:101BA0001340F1D0714B5B6BF822934319007B68B3
:101BB0009B69DA006D4B0A435A6334E07B685B69CA
:101BC000053311D1694B5A6B684B04218A435A6320
:101BD000664B5B6BF822934319007B689B69DA00C4
:101BE000624B0A435A631EE0604B5A6B5F4B042101
:101BF0000A435A635D4B5A6B5C4B01218A435A631B
:101C0000FEF7E4FD0300BB6108E0FEF7DFFD020024
:101C1000BB69D31A022B01D90323A2E0534B5B6BA0
:101C200002221340F1D17B681B6A002B00D197E0A0
:101C30004E4B5B680C221340082B00D16BE07B6895
:101C40001B6A022B4CD1494B1A68484B4A490A403F
:101C50001A60FEF7BBFD0300BB6108E0FEF7B6FDAE
:101C60000200BB69D31A022B01D9032379E03F4B51
:101C70001A6880239B041340F0D13C4BDB6A0F228F
:101C8000934319007B68DA6A384B0A43DA62374BB0
:101C90005B683A4A134019007B689A6A7B685B6A02
:101CA0001A43324B0A435A60304B1A682F4B80213B
:101CB00049040A431A60FEF789FD0300BB6108E08E
:101CC000FEF784FD0200BB69D31A022B01D903235E
:101CD00047E0264B1A6880239B041340F0D03FE076
:101CE000224B1A68214B24490A401A60FEF76EFD08
:101CF0000300BB6108E0FEF769FD0200BB69D31A6F
:101D0000022B01D903232CE0184B1A6880239B0473
:101D10001340F0D124E07B681B6A012B01D1012321
:101D20001FE0124B5B687B61104BDB6A3B617A6999
:101D300080235B021A407B685B6A9A420ED13B6942
:101D40000F221A407B68DB6A9A4207D17A69F02336
:101D50009B031A407B689B6A9A4201D0012300E0F2
:101D600000231800BD4608B080BDC04600100240E8
:101D700088130000FFFFFFEFFFFFFFFEFFFFC2FF22
:101D800080B584B000AF786039607B68002B01D1EA
:101D90000123B3E05B4B1B68012213403A689A426F
:101DA00011D9584B1B68012293431900554B3A68CF
:101DB0000A431A60534B1B68012213403A689A4247
:101DC00001D001239AE07B681B680222134015D0E2
:101DD0007B681B680422134006D04B4B5A684A4B61
:101DE000E021C9000A435A60474B5B68F0229343E5
:101DF00019007B689A68444B0A435A607B681B68E9
:101E00000122134040D07B685B68012B07D13E4B19
:101E10001A6880239B02134014D101236EE07B6873
:101E20005B68022B07D1384B1A6880239B04134050
:101E300008D1012362E0344B1B680222134001D118
:101E400001235BE0304B5B680322934319007B68FE
:101E50005A682D4B0A435A60FEF7B8FC0300FB603A
:101E600009E0FEF7B3FC0200FB68D31A274A93424D
:101E700001D9032342E0244B5B680C221A407B68A3
:101E80005B689B009A42ECD11E4B1B6801221340F9
:101E90003A689A4211D21B4B1B68012293431900E6
:101EA000184B3A680A431A60164B1B68012213400C
:101EB0003A689A4201D0012320E07B681B68042223
:101EC000134009D0104B5B68114A134019007B681E
:101ED000DA680D4B0A435A6000F020F801000A4B03
:101EE0005B681B090F2213400A4AD35C0A00DA40E0
:101EF000094B1A600020FEF723FC00231800BD46A2
:101F000004B080BD00200240001002408813000091
:101F1000FFF8FFFF342200080000002090B58FB0CA
:101F200000AF1423FB182B4A13CA13C312681A609C
:101F30003B1D294A13CA13C312681A600023FB62AF
:101F40000023BB6200237B6300237B6200233B638F
:101F5000224B5B68FB62FB6A0C221340042B02D00D
:101F6000082B03D02DE01E4B3B632DE0FB6A9B0C3E
:101F70000F2213401422BA18D35C7B62174BDB6A22
:101F80000F2213403A1DD35CBB62FA6A80235B02C6
:101F9000134009D0B96A1248FEF7B6F803001A00D8
:101FA0007B6A53437B6309E0796A0A005201521A43
:101FB00093019B1ADB005B181B027B637B6B3B630B
:101FC00002E0074B3B63C0463B6B1800BD460FB0B9
:101FD00090BDC046142200082422000800100240D0
:101FE00000127A0080B586B000AF786000233B61B4
:101FF0000023FB607B681A6880235B02134000D1DA
:102000008EE017203B1800221A705F4BDA6980239C
:102010005B05134010D15C4BDA695B4B80214905AD
:102020000A43DA61584BDA6980235B051340BB60D1
:10203000BB683B1801221A70544B1A6880235B005E
:1020400013401AD1514B1A68504B802149000A4362
:102050001A60FEF7BBFB03003B6108E0FEF7B6FB2E
:1020600002003B69D31A642B01D9032387E0474B55
:102070001A6880235B001340F0D0434B1A6AC023D8
:102080009B001340FB60FB68002B34D07B685A68D0
:10209000C0239B001340FA689A422CD03A4B1B6A2B
:1020A0003B4A1340FB60384B1A6A374B8021490288
:1020B0000A431A62344B1A6A334B36490A401A6291
:1020C000314BFA681A62FB680122134013D0FEF705
:1020D0007DFB03003B6109E0FEF778FB02003B69F2
:1020E000D31A2D4A934201D9032348E0264B1B6A99
:1020F00002221340F0D0244B1B6A254A13401900DA
:102100007B685A68204B0A431A621723FB181B7816
:10211000012B05D11C4BDA691B4B20490A40DA61BF
:102120007B681B680122134009D0174B1B6B0322ED
:10213000934319007B689A68134B0A431A637B68C0
:102140001B682022134009D00F4B1B6B10229343B6
:1021500019007B68DA680C4B0A431A637B681A68BB
:102160008023DB00134009D0074B1B6B40229343B5
:1021700019007B681A69044B0A431A63002318008C
:10218000BD4606B080BDC046001002400070004051
:10219000FFFCFFFFFFFFFEFF88130000FFFFFFEFC4
:1021A00070B500260C4D0D4C641BA410A64209D13D
:1021B000002600F021F80A4D0A4C641BA410A64228
:1021C00005D170BDB300EB5898470136EEE7B30078
:1021D000EB5898470136F2E74422000844220008F1
:1021E000442200084822000803008218934200D1CC
:1021F000704719700133F9E7F8B5C046F8BC08BC60
:102200009E467047F8B5C046F8BC08BC9E4670476D
:102210000000000002030405060708090A0B0C0D64
:102220000E0F10100102030405060708090A0B0C23
:102230000D0E0F100000000000000000010203045A
:04224000060708097C
:04224400E9000008A5
:04224800C1000008C9
:0C224C0000127A000400000001000000F5
:04000005080006C524
:00000001FF
